:0400000031EF03F0E9
:0800080065EF00F000000000AC
:100010000000000000000000046ED8CF05F0E0CF23
:1000200006F00001E9CF0CF0EACF07F0E1CF08F0CD
:10003000E2CF09F0D9CF0AF0DACF0BF0F3CF12F00C
:10004000F4CF13F0FACF14F0F5CF15F0F6CF16F089
:10005000F7CF17F000C00EF001C00FF002C010F093
:1000600003C011F09DAA38EF00F09EBACFEF00F068
:10007000A3AA3EEF00F0A4BABDEF00F00EC000F05E
:100080000FC001F010C002F011C003F00CC0E9FF76
:1000900007C0EAFF078E08C0E1FF09C0E2FF0AC0FF
:1000A000D9FF0BC0DAFF12C0F3FF13C0F4FF14C076
:1000B000FAFF15C0F5FF16C0F6FF17C0F7FF045092
:1000C00006C0E0FF05C0D8FF10000001E9CF1EF018
:1000D000EACF19F0E1CF1AF0E2CF1BF0D9CF1CF034
:1000E000DACF1DF0F3CF24F0F4CF25F0FACF26F0CD
:1000F000F5CF27F0F6CF28F0F7CF29F000C020F099
:1001000001C021F002C022F003C023F09DA28CEFB9
:1001100000F09EB2AEEF00F020C000F021C001F070
:1001200022C002F023C003F01EC0E9FF19C0EAFF9D
:10013000198E1AC0E1FF1BC0E2FF1CC0D9FF1DC011
:10014000DAFF24C0F3FF25C0F4FF26C0FAFF27C062
:10015000F5FF28C0F6FF29C0F7FF11009E928CEF33
:1001600000F0A4AAFED79CCF31F0AACF01F031A2B3
:1001700002D09C989C88BEEF00F0F3D701C088F2B3
:10018000A49A3EEF00F09EAAFED7ACCF31F0AFCFDD
:1001900001F031A202D0AC98AC88D0EF00F0F3D7D8
:1001A00001C088F2020188510D0818E088510A0840
:1001B00015E06151FB0812E3036A6151390FE96EE2
:1001C000010E0320EA6E88C2EFFF612B036A6151C2
:1001D000390FE96E010E0320EA6EEF6A5AB121D0A1
:1001E0005CC25BF25DC25CF25EC25DF25FC25EF257
:1001F00060C25FF288C260F25B51240811E15C5179
:1002000047080EE15D5150080BE15E51470808E1D7
:100210005F51470805E16051410802E1386A5A819F
:1002200031D088510D0803E088510A082BE1886B12
:100230006151885D19E2390E8825016E036AD8B0D4
:10024000032A03C08AF2036A8851390FE96E010E4E
:100250000320EA6EEFCF8BF28AC2EAFF01C0E9FF0A
:100260008BC2EFFF882BE4D7390E8825E96EEA6A46
:10027000D8B0EA2AEF6A61C237F10101388502017C
:100280005A91616B9E9A00013EEF00F0020EEA6EF9
:10029000660EE96EEF5011E0020E016EBF0E006EA9
:1002A0000400002EFDD7012EF9D7960E006E002E09
:1002B000FED700D00400EF2EEFD712009B6A730E1A
:1002C000D36ED350C150C00B0309C16EC18EC28022
:1002D000C18CC282C2B2FED7C19CFE0E0F01486F14
:1002E000C29CC29E4951E00B1F09496FC080FE0E9F
:1002F000486F7F0E496F000E0509CA6E310ECB6E36
:100300000E0E0201666F0001C1DF010138933895BE
:100310003897396B0201376B3868396A0101376BDE
:10032000356A346A3768000191EF03F0D8B204D01F
:10033000020EEA6E800EE96E006A016A026A036AC2
:100340000201806B816B826B836B7F517E117D110B
:100350007C112CE0200E846FD890783779377A376B
:100360007B3780378137823783377F51835D08E160
:100370007E51825D05E17D51815D02E17C51805DB0
:100380000FE37C51805F7D51D8A07D3D815F7E5120
:10039000D8A07E3D825F7F51D8A07F3D835FD8800B
:1003A0000036013602360336842FD6D780C2EFFFDF
:1003B00081C2ECFF82C2ECFF83C2ECFF000135EF8B
:1003C00002F0D89002015835036A380FE96E020E28
:1003D0000320EA6E69C2ECFFED5268C2EFFF582BB2
:1003E00058510F0801E2586B59510F0801E3592B7E
:1003F000716B706B6F6B6E6B726B5951725D14E247
:10040000D8907235036A380FE96E020E0320EA6E47
:10041000ECCF03F0ED52EF506E2703506F23000E28
:1004200070237123722BE9D7D8905931006E016A7D
:10043000026A036A00506E25746F01506F21756F58
:1004400002507021766F03507121776FD8927B6FC5
:1004500076C27AF275C279F274C278F27F6B7E6BE3
:100460007D6B59C27CF2000161D703C06DF202C0FE
:100470006CF201C06BF200C06AF202016AC201F0C4
:100480006BC202F0000166EF02F0000E016EC25076
:10049000C30B0110C26E010E0201666F0001F6DE91
:1004A0000201636B63510F0818E3C282C2B2FED728
:1004B000C4CF02F0C3CF01F0C4CF67F2C3CF66F25E
:1004C000C4CF69F2C3CF68F200017BD702C065F2E6
:1004D00001C064F20201632BE5D765C233F064C248
:1004E00032F00001A2EF03F0020184518407000AF8
:1004F00024E083C2EAFF8251822BD8B4832BE96EB9
:10050000EF50801B856B8551070816E38051010B66
:10051000006E036A005003100AE0D8908131876FA3
:100520008031010A806F8751A00A816F03D0D89073
:1005300081338033852BE7D7D8D780C201F081C2C1
:1005400002F000011200A4A8FED7A96E1200180E36
:1005500001013725020F02017B6F7C6BD8B07C2B29
:10056000230E636F410E646F120E656FBE0E666FD1
:100570006769260E686F7CC269F27BC26AF235C079
:100580006BF234C06CF233C073F232C074F236C016
:1005900079F238C07AF281698069020E836F640E45
:1005A000826F170E846F00019FDF02C07EF201C0D0
:1005B0007DF27EC281F27DC280F20201836B390E30
:1005C000826F37C184F200018FDF02C07EF201C06A
:1005D0007DF202017F6B7F5117080FE3036A7F51A1
:1005E000630FE96E020E0320EA6EEFCF80F28051B6
:1005F0000001A9DF02017F2BEED77F6B010137518C
:1006000002017F5D0EE2390E7F25E96EEA6AD8B0FD
:10061000EA2AEFCF80F28051000195DF02017F2BA3
:10062000EDD77EC280F2805100018DDF7DC280F265
:1006300002018051000187DF342AD8B4352AAEEF99
:1006400003F0375204E0373C01D001D03706383C84
:1006500001D001D0382A363C01D001D0362AB6EF7D
:1006600003F0F86A9F829F9AA59AD08E078E0E019A
:10067000550EA76EAA0EA76EFF910C0EF66F050E13
:10068000D16F550EA76EAA0EA76EFF819B6A700EE2
:10069000D36ED350316A7E96190EB06EA60EAD6E33
:1006A000900EAC6E7C86220EAB6E000E7D6EA60E9A
:1006B000A86E900E9C6EFF0E0F01486FC29CC29EEA
:1006C0004951E00B1F09496F070EB46E02015A91A0
:1006D00007D002002B00002242380007425B0000D6
:1006E000000EF86E060EF76ED20EF66E0900F5508B
:1006F000006E000A13E00900F550016EE8BE05D057
:100700003F0BEA6E0900F5CFE9FF01BC090001AC1F
:100710000900F5CFEEFF004EE9D7F9D7F86A0001DE
:10072000CDD5949A8B9A94988B989D829D8AC00E71
:10073000F2120201626B0400010138A304D0389365
:100740000001A3D6010138A505D03895949A8B7A7B
:100750005F0E376E375205E10001F9D6366A376809
:10076000010138A704D0389700016BD701010201BD
:04077000E2D7FFD7F6
:083FF80000F418FDFFF9CFF100
:00000001FF
;PIC18F24J11
;CRC=CD0B  CREATED="07-Apr-22 12:13"
