:04000000DEEF03F03C
:08000800046ED8CF05F0E0CF33
:1000100006F00001E9CF0CF0EACF07F0E1CF08F0DD
:10002000E2CF09F0D9CF0AF0DACF0BF0F3CF12F01C
:10003000F4CF13F0FACF14F0F5CF15F0F6CF16F099
:10004000F7CF17F000C00EF001C00FF002C010F0A3
:1000500003C011F09DA230EF00F09EB269EF00F0F6
:10006000F2A836EF00F0F2B276EF00F09DAA3CEF76
:1000700000F09EBA99EF00F0A3AA42EF00F0A4BAF4
:1000800087EF00F00EC000F00FC001F010C002F0CA
:1000900011C003F00CC0E9FF07C0EAFF078E08C0DB
:1000A000E1FF09C0E2FF0AC0D9FF0BC0DAFF12C0AE
:1000B000F3FF13C0F4FF14C0FAFF15C0F5FF16C01C
:1000C000F6FF17C0F7FF045006C0E0FF05C0D8FFD9
:1000D00010000201482B4851640804E1486B0101FB
:1000E000268702019E92000142EF00F094988B78DF
:1000F000F29242EF00F0A4AAFED79CCF1FF0AACF45
:1001000001F01FA202D09C989C8888EF00F0F3D7E2
:1001100001C07BF2A49A42EF00F09EAAFED7ACCFBA
:100120001FF0AFCF01F01FA202D0AC98AC889AEFBD
:1001300000F0F3D701C07BF202017B510D0818E0FB
:100140007B510A0815E05051FB0812E3036A505135
:10015000270FE96E010E0320EA6E7BC2EFFF502BE2
:10016000036A5051270FE96E010E0320EA6EEF6A11
:1001700049B121D04BC24AF24CC24BF24DC24CF2B3
:100180004EC24DF24FC24EF27BC24FF24A5124088A
:1001900011E14B5147080EE14C514E080BE14D5116
:1001A000470808E14E51470805E14F51410802E177
:1001B000266A498131D07B510D0803E07B510A0842
:1001C0002BE17B6B50517B5D19E2270E7B25016E85
:1001D000036AD8B0032A03C07DF2036A7B51270F5C
:1001E000E96E010E0320EA6EEFCF7EF27DC2EAFFD8
:1001F00001C0E9FF7EC2EFFF7B2BE4D7270E7B25F2
:10020000E96EEA6AD8B0EA2AEF6A50C225F1010124
:10021000268502014991506B9E9A000142EF00F041
:1002200023204544442028257329206F6E205854EC
:10023000430D0A0031372D4465632D323200020E22
:10024000EA6E7A0EE96EEF5011E0020E016EBF0EFB
:10025000006E0400002EFDD7012EF9D7960E006E19
:10026000002EFED700D00400EF2EEFD712009B6ABD
:10027000730ED36ED350C150C00B0309C16EC18E33
:10028000C280C18CC282C2B2FED7C19CFE0E0F01D9
:10029000486FC29CC29E4951E00B1F09496FC08044
:1002A000FE0E486F7F0E496F000E0509CA6E310EB3
:1002B000CB6E0E0E02017A6F0001C1DF01012693A1
:1002C00026952697276B0201256B2668276A010170
:1002D000256B236A226A2568000142EF04F00900B9
:1002E000F6CF55F2F7CF56F2F550A4A8FED7A96E77
:1002F00055C2F6FF56C2F7FF0201542F01D002D0BB
:100300000001EDD7000112000900F5520DE0F6CF13
:1003100054F2F7CF55F2F550A4A8FED7A96E54C2F7
:10032000F6FF55C2F7FFF0D754EF04F09EA8FED7B2
:10033000AE6E12000201576B586BB50E5A6F620E0B
:100340005B6F060E5C6F010E5D6F080E5E6F5F6B7C
:1003500054C260F255C261F256C262F256C263F2F2
:1003600056C264F256C265F256C266F2676B020E5E
:10037000596F59510D080DE3036A59515A0FE96E2F
:10038000020E0320EA6EEF50572757515827592B7A
:10039000F0D757C268F258C269F2596B59510F0829
:1003A0000FE3036A59515A0FE96E020E0320EA6EF9
:1003B000EFCF7AF27A510001B9DF0201592BEED763
:1003C000640E7A6F00013BDF12000201546B556B23
:1003D000B50E576F620E586F060E596F690E5A6F41
:1003E000140E5B6F5C6B5D6B010E5E6F050E5F6FD5
:1003F000606B010E616F626F0D0E636F646B830E35
:10040000656F020E666F380E676F1A0E686F9E0E6C
:10041000696F560E6A6F3D0E6B6FC90E6C6F640E7E
:100420006D6F6E6B6F6B706B020E566F56511908C5
:100430000DE3036A5651570FE96E020E0320EA6E70
:10044000EF50542754515527562BF0D754C271F210
:1004500055C272F2566B56511B080FE3036A565190
:10046000570FE96E020E0320EA6EEFCF77F2775155
:1004700000015CDF0201562BEED7640E7A6F00019B
:10048000DEDEA4EF04F0D8B204D0020EEA6E710EE4
:10049000E96E006A016A026A036A0201716B726B9B
:1004A000736B746B70516F116E116D112CE0200E17
:1004B000756FD89069376A376B376C377137723719
:1004C000733774377051745D08E16F51735D05E1E6
:1004D0006E51725D02E16D51715D0FE36D51715F9F
:1004E0006E51D8A06E3D725F6F51D8A06F3D735FA3
:1004F0007051D8A0703D745FD88000360136023646
:100500000336752FD6D771C2EFFF72C2ECFF73C2EC
:10051000ECFF74C2ECFF0001E2EF02F0D8900201A0
:100520004635036A260FE96E020E0320EA6E5AC2B0
:10053000ECFFED5259C2EFFF462B46510F0801E286
:10054000466B47510F0801E3472B626B616B606B91
:100550005F6B636B4751635D14E2D8906335036A48
:10056000260FE96E020E0320EA6EECCF03F0ED5287
:10057000EF505F2703506023000E61236223632B3B
:10058000E9D7D8904731006E016A026A036A0050C9
:100590005F25656F01506021666F02506121676FB2
:1005A00003506221686FD8926C6F67C26BF266C2AB
:1005B0006AF265C269F2706B6F6B6E6B47C26DF267
:1005C000000161D703C05EF202C05DF201C05CF2BF
:1005D00000C05BF202015BC201F05CC202F00001EC
:1005E00013EF03F0000E016EC250C30B0110C26E78
:1005F000010E02017A6F000122DE0201546B545198
:100600000F0818E3C282C2B2FED7C4CF02F0C3CF34
:1006100001F0C4CF58F2C3CF57F2C4CF5AF2C3CFC0
:1006200059F200017BD702C056F201C055F2020117
:10063000542BE5D756C221F055C220F00001B8EF87
:1006400004F0020175517507000A24E074C2EAFF44
:100650007351732BD8B4742BE96EEF50711B766B0A
:100660007651070816E37151010B006E036A0050C2
:1006700003100AE0D8907231786F7131010A716FFE
:100680007851A00A726F03D0D89072337133762BF1
:10069000E7D7D8D771C201F072C202F00001120090
:1006A000A4A8FED7A96E1200180E01012525020F7D
:1006B00002016C6F6D6BD8B06D2B230E546F410E21
:1006C000556F120E566FBE0E576F5869260E596F32
:1006D0006DC25AF26CC25BF223C05CF222C05DF2C2
:1006E00021C064F220C065F224C06AF226C06BF219
:1006F00072697169020E746F550E736F170E756F04
:1007000000019FDF02C06FF201C06EF26FC272F291
:100710006EC271F20201746B270E736F25C175F200
:1007200000018FDF02C06FF201C06EF20201706B38
:10073000705117080FE3036A7051540FE96E020EEF
:100740000320EA6EEFCF71F271510001A9DF0201BF
:10075000702BEED7706B010125510201705D0EE226
:10076000270E7025E96EEA6AD8B0EA2AEFCF71F257
:100770007151000195DF0201702BEDD76FC271F24C
:10078000715100018DDF6EC271F2020171510001E1
:1007900087DF222AD8B4232AC2EF04F0255204E0CE
:1007A000253C01D001D02506263C01D001D0262AC7
:1007B000243C01D001D0242ACAEF04F0F86AD09E6C
:1007C000078E0E01550EA76EAA0EA76EFF910C0E96
:1007D000F66F050ED16F550EA76EAA0EA76EFF819C
:1007E0009B6A700ED36ED3501F6A7E960C0EB06E4D
:1007F000A20EAD6E900EAC6E7C86220EAB6E000E1D
:100800007D6EA60EA86E900E9C6E0201526B516B0F
:10081000FF0E0F01486FC29CC29E4951E00B1F0999
:10082000496F070EB46E0201499107D0020019000A
:10083000002342260007424A0000000EF86E080E10
:10084000F76E2C0EF66E0900F550006E000A13E0EC
:100850000900F550016EE8BE05D03F0BEA6E0900B5
:10086000F5CFE9FF01BC090001AC0900F5CFEEFFAF
:10087000004EE9D7F9D7F86A94968B9694948B94A6
:100880000001F5D4949A8B9A94988B98200EF66E6A
:10089000020EF76E070E0201546F000120DD340EC8
:1008A000F66E020EF76E30D5290EF66E020EF76E5A
:1008B0000A0E0201546F000112DD640E02017A6F0C
:1008C0000001BDDCF00E0201546F556B010E566F36
:1008D000000130DD010E0201546F390E556F010E1B
:1008E000566F000127DDF00E0201546F010E556FA7
:1008F000566B00011FDDF00E0201546F020E556FA2
:10090000566B000117DDF00E0201546F030E556F98
:10091000566B00010FDDF00E0201546F040E556F8F
:10092000566B000107DDF00E0201546F410E556F4A
:10093000566B0001FFDCF00E0201546F050E556F7F
:10094000566B0001F7DC41D59D8AF288C00EF21289
:100950000201536B0400938281A202D08B9A01D0D2
:100960008B8A949A010126A304D0269300013AD6DB
:10097000010126A503D026955F0E256E255205E1BF
:10098000000192D6246A2568010126A704D0269783
:0C099000000104D701010201DDD7FFD7F0
:083FF80000F418FDFFF9CFF100
:00000001FF
;PIC18F24J11
;CRC=DCEF  CREATED="17-Dec-22 22:45"
