:0400000034EF03F0E6
:08000800046ED8CF05F0E0CF33
:1000100006F00001E9CF0CF0EACF07F0E1CF08F0DD
:10002000E2CF09F0D9CF0AF0DACF0BF0F3CF12F01C
:10003000F4CF13F0FACF14F0F5CF15F0F6CF16F099
:10004000F7CF17F000C00EF001C00FF002C010F0A3
:1000500003C011F09DA230EF00F09EB269EF00F0F6
:10006000F2A836EF00F0F2B272EF00F09DAA3CEF7A
:1000700000F09EBA98EF00F0A3AA42EF00F0A4BAF5
:1000800086EF00F00EC000F00FC001F010C002F0CB
:1000900011C003F00CC0E9FF07C0EAFF078E08C0DB
:1000A000E1FF09C0E2FF0AC0D9FF0BC0DAFF12C0AE
:1000B000F3FF13C0F4FF14C0FAFF15C0F5FF16C01C
:1000C000F6FF17C0F7FF045006C0E0FF05C0D8FFD9
:1000D0001000E12BE151640802E1E16BA1839E92E3
:1000E00042EF00F094988B785F0E9F6FA06BF292B6
:1000F00042EF00F0A4AAFED79CCF1FF0AACF01F0D8
:100100001FA202D09C989C8887EF00F0F3D701C013
:1001100047F1A49A42EF00F09EAAFED7ACCF1FF0A1
:10012000AFCF01F01FA202D0AC98AC8899EF00F0DD
:10013000F3D701C047F1A05310E1E76BE7C0E6F049
:10014000E6C0E5F0E5C0E4F0E4C0E3F0E3C0E2F0CF
:10015000E96BE86BEA6B010EA06FA02D2BD0949A8F
:100160008B9AE3C0E2F0E4C0E3F0E5C0E4F0E6C05F
:10017000E5F0E7C0E6F047C1E7F0E251B50819E164
:10018000E351620816E1E7C0E9F0E6C0E8F0EA6B87
:10019000E42D06D0E551070803E1020EA06F09D057
:1001A000E42D06D0E551390803E1030EA06F01D01C
:1001B000A06943D0A051020818E1949A8B8AE953B0
:1001C00003E1E851EA5D0EE2EA515D080BE3036AE0
:1001D000EA512C0FE96E000E0320EA6E47C1EFFFD3
:1001E000EA2B02D0010EA06F28D0A051030818E11D
:1001F000949A8B8AE95303E1E851EA5D0EE2EA51F1
:1002000012080BE3036AEA518B0FE96E000E03201C
:10021000EA6E47C1EFFFEA2B02D0010EA06F0DD0AE
:10022000A03D0BD0949A8B8AE95303E1E851EA5D33
:1002300002E2EA2B02D0010EA06F9E9A42EF00F07C
:10024000010EEA6E120EE96EEF5011E0020E016E21
:10025000BF0E006E0400002EFDD7012EF9D7960EBA
:10026000006E002EFED700D00400EF2EEFD7120054
:100270009B6A730ED36ED350C150C00B0309C16E7D
:10028000C18EC280C18CC282C2B2FED7C19CFE0E9A
:100290000F01486FC29CC29E4951E00B1F09496F74
:1002A000C080FE0E486F7F0E496F000E0509CA6EB2
:1002B000310ECB6E0E0E0101126F0001C1DFA19154
:1002C000A193A06B236A226A9F6991EF03F09EA815
:1002D000FED7AE6E1200EF6BF06BB50EF26F620ED2
:1002E000F36F060EF46F010EF56F080EF66FF76BE5
:1002F000ECC0F8F0EDC0F9F0EEC0FAF0EEC0FBF0A3
:10030000EEC0FCF0EEC0FDF0EEC0FEF0FF6B020EA2
:10031000F16FF1510D080DE3036AF151F20FE96E2F
:10032000000E0320EA6EEF50EF27EF51F027F12B7C
:10033000F0D7EFC000F1F0C001F1F16BF1510F08FF
:100340000FE3036AF151F20FE96E000E0320EA6E2B
:10035000EFCF12F1010112510001B9DFF12BEED7FD
:10036000640E0101126F00016BDF1200EC6BED6B8C
:10037000B50EEF6F620EF06F060EF16F690EF26F41
:10038000140EF36FF46BF56B010EF66F050EF76F3D
:10039000F86B010EF96FFA6F0D0EFB6FFC6B830E9D
:1003A000FD6F020EFE6F380EFF6F1A0E0101006F17
:1003B0009E0E016F560E026F3D0E036FC90E046F45
:1003C000640E056F066B076B086B020E0001EE6F83
:1003D000EE5119080DE3036AEE51EF0FE96E000EBE
:1003E0000320EA6EEF50EC27EC51ED27EE2BF0D70F
:1003F000ECC009F1EDC00AF1EE6BEE511B080FE302
:10040000036AEE51EF0FE96E000E0320EA6EEFCFA4
:100410000FF101010F5100015ADFEE2BEED7640EF0
:100420000101126F00010CDFD8EF03F0010143510D
:100430004307000A24E042C1EAFF4151412BD8B4EE
:10044000422BE96EEF503F1B446B4451070816E303
:100450003F51010B006E036A005003100AE0D89070
:100460004031466F3F31010A3F6F4651A00A406F4D
:1004700003D0D89040333F33442BE7D7D8D73FC180
:1004800001F040C102F0000104EF03F0A4A8FED780
:10049000A96E1200230EEC6F410EED6F120EEE6F7F
:1004A000BF0EEF6F520EF06F270EF16F23C0F2F008
:1004B00022C0F3F02CC0F4F02DC0F5F02EC0F6F001
:1004C0002FC0F7F030C0F8F031C0F9F032C0FAF0C8
:1004D00033C0FBF034C0FCF035C0FDF036C0FEF098
:1004E00040C0FFF041C000F143C001F144C002F13F
:1004F00045C003F146C004F147C005F148C006F10C
:1005000049C007F14AC008F14BC009F150C00AF1D7
:1005100051C00BF152C00CF153C00DF18BC00EF164
:100520008CC00FF18DC010F18EC011F190C012F18E
:1005300091C013F192C014F121C015F1010120C046
:1005400016F126C017F129C018F125C019F124C0F1
:100550001AF128C01BF127C01CF12BC01DF12AC0C5
:100560001EF1A2C01FF1A3C020F1A4C021F1A5C0BB
:1005700022F1A6C023F1A7C024F1A8C025F1A9C08B
:1005800026F1AAC027F1ABC028F1ACC029F1ADC05B
:100590002AF1AEC02BF1B2C02CF10101B1C02DF196
:1005A0000101B0C02EF10101AFC02FF10101B4C0B3
:1005B00030F10101B3C031F10101B6C032F10101E6
:1005C000B5C033F10101B8C034F10101B7C035F154
:1005D0000101BAC036F10101B9C037F10101BCC057
:1005E00038F10101BBC039F10101BEC03AF101018E
:1005F000BDC03BF1010140693F69426BED0E416FA7
:100600004F0E436F000112D702C03DF101C03CF113
:1006100001013E6B3E514F080FE3036A3E51EC0F60
:10062000E96E000E0320EA6EEFCF3FF13F5100016B
:100630002DDF01013E2BEED73DC13FF13F510001BF
:1006400025DF3CC13FF101013F5100011FDF222A9C
:10065000D8B4232AE5EF03F09F5304E09F3D01D077
:1006600001D09F07EAEF03F0F86AD09E078E0E01D3
:10067000550EA76EAA0EA76EFF910C0EF66F050E13
:10068000D16F550EA76EAA0EA76EFF819B6A700EE2
:10069000D36ED3501F6A7E960C0EB06EA20EAD6E56
:1006A000900EAC6E7C86220EAB6E000E7D6EA60E9A
:1006B000A86E900E9C6EFF0E0F01486FC29CC29EEA
:1006C0004951E00B1F09496F070EB46E05D00200B7
:1006D0001900002C40BF0000000EF86E060EF76EE9
:1006E000CE0EF66E0900F550006E000A13E0090008
:1006F000F550016EE8BE05D03F0BEA6E0900F5CF5C
:10070000E9FF01BC090001AC0900F5CFEEFF004E86
:10071000E9D7F9D7F86A94968B9694948B94000154
:10072000A7D5949A8B9A94988B98640E0101126FB6
:10073000000186DD010EEC6F070EED6F010EEE6F0E
:10074000CADD010EEC6F390EED6F010EEE6FC3DDE9
:10075000010EEC6F030EED6FEE6BBDDDF00EEC6F76
:10076000ED6BEE6BB8DDF00EEC6F010EED6FEE6B26
:10077000B2DDF00EEC6F020EED6FEE6BACDDF00E45
:10078000EC6F030EED6FEE6BA6DDF00EEC6F040E5A
:10079000ED6FEE6BA0DDF00EEC6F410EED6FEE6BCA
:1007A0009ADDF00EEC6F050EED6FEE6B94DDDED58D
:1007B0009D829D8AF288C00EF212EB6B0400A1A10B
:1007C00001D0A1919F5302E165D69F69A1A302D0F8
:0807D000A19342D7F3D7FFD734
:083FF80000F418FDFFF9CFF100
:00000001FF
;PIC18F24J11
;CRC=C85C  CREATED="08-Jan-23 16:42"
